:020000040800F2
:1000000020070020B50F0008D50F0008D70F000803
:1000100000000000000000000000000000000000E0
:10002000000000000000000000000000D90F0008E0
:100030000000000000000000DB0F0008DD0F0008DA
:100040002F0700087F070008FB0D00085F0F00085E
:100050006B0F0008E50F0008E70F0008E90F000824
:10006000EB0F0008ED0F0008EF0F0008F10F00087C
:10007000F30F0008F50F0008F70F0008F90F00084C
:10008000FB0F0008FD0F0008FF0F0008011000081B
:1000900003100008051000080710000809100008E8
:1000A0000B1000080D1000080F10000811100008B8
:1000B000131000081510000817100008FEB5050001
:1000C0001BD0B64C2878C00719D5A1683820084045
:1000D000E1688027BF02102808D18807800F032815
:1000E00006D069687808814233D13AE00828F8D10F
:1000F0002068074003D06868002800D1E3E1287831
:1001000080077AD5A06838210140E268A448A54F4D
:1001100010294DD19207920F022A4BD0E96800298D
:1001200000D194E0216808402969014321602068DA
:10013000A10D0143216000F0D9FA060020684005B6
:1001400000D57DE000F0D2FA801B0328F6D303200F
:10015000FEBDA022D202914207D1216882000A434B
:10016000226021680843206007E02068B64901400A
:1001700021602068B54901402160686800280BD0E3
:1001800000F0B4FA060020683840B8D100F0AEFAAA
:10019000801B6528F7D3DAE700F0A8FA060020688C
:1001A0003840ACD000F0A2FA801B6528F7D3CEE728
:1001B0000029B3D12268520502D5EA68002A3ED050
:1001C000626817406A6912023A43626000290ED1E0
:1001D000216808402969014321609D480121226866
:1001E0009204520F914000F087FAB8490860B8486D
:1001F000006800F09DFA002821D102272878000726
:100200000AD5A06838210140182930D1206E384025
:1002100002D0A869002812D02878400700D4A5E0B1
:1002200000200190A06838210140202941D1E06DD3
:10023000074000D19AE0A868002800D096E042E18B
:10024000606807406869000238436060D5E720684D
:10025000A0490140216000F049FA060020684005ED
:10026000CBD500F043FA801B0328F7D36FE7A869CA
:100270000028206E0ED001210143216600F036FADD
:100280000600206E3840C7D100F030FA801B0328EA
:10029000F7D35CE701218843206600F027FA0600C7
:1002A000206E3840B8D000F021FA801B0328F7D325
:1002B0004DE7F806E16B014008D1E16B0143E163D2
:1002C000E16B08400090009801200190824F38684F
:1002D000C00512D4A00D0090386800990143396020
:1002E00000F004FA060038680099014005D100F0DA
:1002F000FDF9801B0328F6D329E7A868012101280E
:1003000005D00528E06D06D104220243E265E06DC8
:100310000143E16505E08843E065E06D0421884321
:10032000E0650227A86800280CD000F0DFF906007D
:10033000E06D384013D100F0D9F9801B674988423D
:10034000F6D304E700F0D2F90600E06D384006D09D
:1003500000F0CCF9801B61498842F6D3F7E601989A
:10036000002803D0E06B5E490140E16328788006F5
:1003700029D580273F04E8690028206814D079082F
:100380000143216000F0B2F90600206838401AD11C
:1003900000F0ACF9801B0328F7D3D8E60010024028
:1003A000FFC7FFFFFF80FFFFA2490140216000F06F
:1003B0009DF906002068384005D000F097F9801BB1
:1003C0000328F7D3C3E6286A002855D0A16838224D
:1003D0000A40102A52D08027BF049749022820687B
:1003E00038D10140216000F081F9060020683840D2
:1003F00005D000F07BF9801B0328F7D3A7E6E0685F
:100400008E490140686A0843A96A0143E86A00020C
:100410000843296B0143686B0843A96B0143E16002
:100420002068790801432160E068F9000143E16038
:1004300000F05CF90500206838401DD100F056F945
:10044000401B0328F7D382E6FFFFFEFFFFFFFBFF01
:100450000024F4000140216000F048F90500206804
:10046000384005D000F042F9401B0328F7D36EE670
:10047000E06894490140E1600020FEBD012822D0DF
:10048000E0688107890F6A6A91421CD1702101409E
:10049000AA6A914217D1FE21C9010140EA6A1202FB
:1004A000914210D1F821890301402A6B91420AD16F
:1004B000E021090501406A6B914204D1400F4007D9
:1004C000A96B8842D8D00120FEBD00BF0C000020DF
:1004D00008000020FFFEFFFF0070004089130000AD
:1004E000FFFFFFEFF8B5070066D00091764800687F
:1004F0004007400F884218D2734C20680721884378
:1005000000990143216000F0F1F8009D0600206889
:100510004007400FA84207D000F0E8F8801B6B4965
:100520008842F4D30320F2BD00953968694C02205B
:1005300001420CD0490704D5A168E022D2010A4348
:10054000A260A168624A0A40B9681143A160072508
:10055000ED433978C90732D57968012918D1206867
:10056000800329D5A06828400143A16000F0BEF8AF
:100570003E000700A068382101407068C000814239
:100580001CD000F0B3F8C01B50498842F2D3C9E731
:10059000022902D12068800103E0002903D12068EC
:1005A0004005DFD408E0032903D1226E1040D9D1E1
:1005B00002E0E26D1040D5D10120F2BD3700009875
:1005C000414909684907490F884217D23E480068E7
:1005D0000540009828433C49086000F087F8009DDA
:1005E0000600394800684007400FA84206D000F0D6
:1005F0007DF8801B35498842F3D393E7387840076C
:1006000005D5A06834490140F8680843A06000F0AF
:1006100017F83249A2681205120F9200895CC906C8
:10062000C90EC8402E4908602E48006800F080F8C6
:10063000F2BD0000FFFFBFFFFFFFFFFE8C80C11176
:1006400030B507212848234C3823A2681A4006D128
:1006500023680122DB0A19408A4011001EE042088B
:10066000A5681D40082D01D1100030BDA5681D40B2
:10067000102D16D1E368E5682D092940491C7F2516
:100680009B079B0F032B00D1100000F035F8E168A9
:10069000090A0D406843E168490F491C00F02CF835
:1006A00030BDA0681840202802D18020000230BD53
:1006B000A0680340182B02D1FA20C00130BD0020F1
:1006C00030BD0000FCFFFEEE002002408913000058
:1006D000FFF0FFFF00100240FF8FFFFF080E000831
:1006E0000C000020080000200024F40001484068AD
:1006F000704700BF00000020094214D088420FD389
:100700000122030C01D100041204002300185B41F4
:100710008B4200D35B1A5241F8D319001000704786
:1007200001000020704708B500F028F808BDFEE77A
:1007300070B5060000240F4D2978002916D0FA2044
:100740008000FFF7D9FF01000B480068FFF7D4FFD6
:1007500000F038F8002809D1042E07D20022310019
:100760000020C04300F029F8AE6000E00124200022
:1007700070BD00BF000000200C0000207047FEE7A5
:1007800010B5C20018231340FF249C40E2438907A0
:10079000090E9940030004D414489B089B00C0181C
:1007A00006E0134B0007000F083880088000181877
:1007B00003681A401143016010BD80B5FFF7E0FFE8
:1007C00001BD000010B5401E80214904884201D3BC
:1007D000012010BD074C606003210020C043FFF7DB
:1007E000CFFF0020A0600721216010BD00E400E0E1
:1007F0001CED00E010E000E0F0B585B00400002042
:100800006A461070984D02210491216889035AD5D7
:10081000029080204005296B014008D1296B0143DB
:100820002963296B08400190019801200290A80DCE
:1008300003908E480190006803990143019801607C
:10084000FFF754FF0600019800680399014008D1A2
:10085000FFF74CFF801B0328F5D30320694608707F
:100860002AE0296DC02080000840814F00280ED06A
:10087000216C88420BD0286D3840296D80225202AD
:100880000A432A65296D7B4A0A402A652865C00704
:100890000DD5FFF72BFF0600286D0499014006D106
:1008A000FFF724FF801B74498842F5D3D5E7286DF4
:1008B0000740206C384328650298002803D0286B35
:1008C0006E49014029630322D2432078C00704D532
:1008D000A86C104061680143A96420680499014034
:1008E00005D0A86C0C218843A1680143A964207835
:1008F000400705D5A86C30218843E1680143A9640D
:100900002078C00605D5A86C5D49014020690843E0
:10091000A8642068C00405D5A86C554901406069E9
:100920000843A8642068800505D5A86C5549014096
:10093000A06A0843A8642068400505D5A86C524900
:100940000140E06A0843A86450482178890604D52C
:10095000A96C0140A3690B43AB642178490605D516
:10096000A96C4B4B0B40E1691943A9642168490408
:100970000ED5A96C89008908236B0B43AB64216BEE
:100980008023DB05994203D129689B0B0B432B6025
:100990002168090305D5A96C40239943636B0B4378
:1009A000AB64802149048B082668B6020BD5AF6C76
:1009B000384E3E40A76B3743AF64A66B9E4202D1D0
:1009C0002E680E432E60266833400BD0AB6C324E3F
:1009D0001E40E36B3343AB64E36B8B4202D12B6865
:1009E0000B432B600B0A266836050AD5EE6C3240A5
:1009F000266A1643EE64226A012A02D12A681A4343
:100A00002A60CA0A266816400BD0EE6C0C27BE433B
:100A1000676A3743EF64666A042E02D12E68334357
:100A20002B6023680B400AD0EB6C1840636C0343C7
:100A3000EB64606C904202D128680843286020680B
:100A400080010CD5E86C0A4A0240A06C1043E864AF
:100A5000A06C0A0C904202D12868014329606846C4
:100A6000007805B0F0BD00000C100240007000409E
:100A7000FFFCFFFFFFFFFEFF89130000FFFFFFEFFA
:100A8000FFF3FFFFFFFFF3FFFFFFCFFFFFCFFFFFEE
:100A9000FF3FFFFFFFFFBFFFFFFFFFFE80B500F03E
:100AA0006FF800F02FF8202013490A6802430A600B
:100AB0000A6810400090009801200A6802430A600A
:100AC00009680840009000980C480D490160082111
:100AD000416081600221C16081610021C1610162C8
:100AE00041628162C1620163416300F05DF80028E8
:100AF00001D000F043F8FEE7341002401800002057
:100B0000005C004030B593B03C22002104A800F006
:100B1000A1F810220021684600F09CF88020800097
:100B200000F0AEF822200490DE30079080030B9096
:100B3000002408944020099002250C950D950E94F0
:100B400008200F9080031090000211900001129075
:100B500004A8FFF7B3FA002801D072B6FEE7072019
:100B6000009001950294039402216846FFF7BAFCB5
:100B7000002801D072B6FEE713B030BD72B6FEE7B2
:100B800010B5002407480168820D0A430260002066
:100B9000FFF7CEFD002801D0012401E000F096F817
:100BA000200010BD00200240F8B58AB0070001D136
:100BB00001204DE0AF2080003E180024707800280E
:100BC00003D13470380000F096F8032070703C6157
:100BD000386800F0CFF8002001250FE028214143BC
:100BE00079183D228D543C23C8544823C8523F23D2
:100BF000CC54CC640C654C65401CC0B2796888420A
:100C0000ECD300200DE0282141437918BE22520088
:100C100089184C700870CC700C614C618C61401C60
:100C2000C0B279688842EED3391D83B06846342259
:100C300000F0B8F80EBC386800F0A2F838203C5438
:100C40007570786A012802D1380000F0C5F80020DC
:100C50000BB0F0BD10B50400080011000200200028
:100C600000F0CCF8200010BD04480168020D01E03E
:100C70000168420D0A4302607047000004700040A2
:100C800010B50E4C21680E4A0A4002432260610DE5
:100C9000884210D10B480068062148430A49FFF7F3
:100CA0002BFD401C00E0401E6169490503D500286A
:100CB000F9D1032010BD002010BD000000700040DD
:100CC000FFF9FFFF0C00002040420F0081B02648D2
:100CD000012142680A434260426811400091009934
:100CE0008021490502680A430260006801400091C2
:100CF000009801B0704710B594B004004C22002158
:100D000001A8FFF7A7FF2068184988422AD1802050
:100D1000400401900020129001A8FFF76DFD00280B
:100D200001D0FFF72BFF802080010F4C2168014389
:100D300021602168084000900098802040052168CB
:100D400001400DD1216801432160216808400090D5
:100D50000098FFF789FF206805490140216001E004
:100D6000FFF782FF14B010BD3C100240005C004051
:100D7000FFFFFFEF016C0A4A0A400264002070473F
:100D80000EB401210164016C012291430164016CE4
:100D900049004908016400214164002003B0704704
:100DA0007F40FFFF70B4103A03D378C9103A78C07F
:100DB000FBD2530701D318C918C001D508C908C010
:100DC000D20704D30B880380891C801C002A01D51C
:100DD0000B78037070BC70470168BD2292008018C8
:100DE0000122826000230370486D02434A65486D0A
:100DF000022202434A6500207047FEE7094202D002
:100E0000491E4254FCD17047000000000000000061
:100E100000000000000000000000000000000000D2
:100E200000000000000000000100000002000000BF
:100E3000030000000400000006000000070000009E
:100E4000080000000900000070B40123002413E032
:100E50000168001D194202D04D466918491E0C60F8
:100E6000091D121F042AFAD20D00960701D50C8025
:100E7000AD1C1A4000D02C700268001D002AE7D17A
:100E800070BC704730B401220EE00368C318446898
:100E90000830144202D04D462C19641E1D6825608E
:100EA0001B1D241D091FF9D10168001D0029ECD16B
:100EB00030BC704710B500F013F802000023002486
:100EC000E4431068A04203D011000220ABBE1360BF
:100ED0005068A04203D0111D0220ABBE536010BD6C
:100EE000004870471000002010B5074979441831B8
:100EF000064C7C44163404E0081D0A6889188847AB
:100F00000100A142F8D110BD080000002800000037
:100F100039FFFFFF08030000180000200000000058
:100F200065FFFFFF180000007400000000000020B3
:100F30000000000000F00DF8002801D0FFF7D4FFFA
:100F400000BF00BF002000BF00BFFFF7A7FD00F0FB
:100F500002F80120704780B500F002F801BDFEE7FD
:100F60000746384600F002F8FBE7FEE780B5FFF7DA
:100F7000A1FF024A11001820ABBEFBE726000200C9
:100F80000548014603B4684680F3098800BF00BFE6
:100F900000BF00BFFFF7CEFFA5EDF5FE010000008A
:100FA00000000000040000000024F400FFFFFFFF29
:100FB000FFFFFFFF01488047014800471910000864
:100FC000810F000802484168027889184160704723
:100FD00000000020FEE7FEE77047704780B5FFF78E
:100FE000F1FF01BDFEE7FEE7FEE7FEE7FEE7FEE7F5
:100FF000FEE7FEE7FEE7FEE7FEE7FEE7FEE7FEE7C9
:10100000FEE7FEE7FEE7FEE7FEE7FEE7FEE7FEE7B8
:0A101000FEE7FEE7FEE7FEE770478B
:0400000508000F815F
:00000001FF
